:020000040000FA
:060000000A128A11E12F33
:10076600831203130816881608178817080018340A
:100776007F347F347F3401347A347A343034093428
:100786000534083403340A340A340A340A347E0839
:100796008A007F0882000A128A11CA230A128A1165
:1007A6008000840A04087D0603190034FF0A031931
:1007B600FE0ACE2BF100F201F730F000710884003A
:1007C6007008831380000130F0007008F1070130D3
:1007D600F0007008F20704307202031CF32BF42BAE
:1007E600DF2B0800F100F201FF30F00071088400F1
:1007F6007008831380000130F0007008F1070130A3
:10080600F0007008F20704307202031C0B2C0C2C4B
:10081600F72B0800F100F2010A30F000710884009D
:100826007008831380000130F0007008F107013072
:10083600F0007008F20704307202031C232C242CEB
:100846000F2C080018344F3431344F3420343834E8
:10085600003400340F347F347F347F3401344F3416
:10086600123406344C34243420340F340034043427
:10087600FE347E34F30070087307F10071088400BB
:10088600093083130002031C492C4A2C512C700892
:100896007307F1007108840080015A2C0130F100C1
:1008A60070087307F2007208840071088007080058
:1008B600F000792C8312031308128816081788177C
:1008C600872C831203130816881208178817872C9B
:1008D600831203130816881608138817872C8312A9
:1008E60003130816881608178813872C7008003A11
:1008F60003195D2C013A0319642C033A03196B2C76
:10090600013A0319722C872C0800FA00831203138C
:100916006308F9006208F8006108F7006008F6004D
:10092600FB017B08763E84000008F4007B087A070A
:10093600F500750884008313000874060319A42CB7
:10094600A52CA62CB72C0130F4007408FB07043044
:100956007B02031CAF2CB02C942C7A080A128A1145
:10096600F5230A128A11BD2C7A080A128A11DD2390
:100976000A128A1183120313881CC22CC32CC72C9B
:100986007308840083138001080083160317880107
:1009960089018316031386018801831203138601D6
:1009A60083120317871388138316031307148714F8
:1009B600071587150814C83083120313C8004808A2
:1009C600D300D401D701D501D601D60A6708D200D3
:1009D6006608D1006508D0006408CF005408C80036
:1009E6004808F1005708C9004908F2005308CA0030
:1009F6004A08F3004F300A128A118F260A128A110A
:100A0600573083120313C8004808F4005530C90054
:100A16004908F5005630CA004A08F6004F300A1257
:100A26008A116A250A128A110430831203135706A3
:100A360003191E2D1F2D252D04305506031D242DAB
:100A4600252D362D5730C8004808F3004F300A12BE
:100A56008A1188240A128A11831203138818342DE6
:100A6600352D362DD5010818392D3D2D831203134A
:100A76008814402D8312031388108818432D442DA3
:100A8600472DCB01CC014E2D5708C800C901480897
:100A9600CB004908CC004B08C8004808D7005408CA
:100AA6005302031C572D582D602D5408013ECD00CE
:100AB600003003180130CE00622DCD01CE014D0865
:100AC600C8004808D400F12C0A128A1100288312A3
:100AD6000313A400071D702D712D942D7608840034
:100AE60083130003031D782D792D942D5330F700C1
:100AF600F70B7B2D83120313071D822D832D942D57
:100B06007408840083130008F7007708F0002408AF
:100B16000A128A113D240A128A1176088400831368
:100B2600800183120313871D992D9A2DBC2D7608FB
:100B3600840083130003031DA12DA22DBC2D533069
:100B4600F700F70BA42D83120313871DAB2DAC2DD5
:100B5600BC2D24080A128A110D240A128A1174085F
:100B66008400831380017608840080017508840060
:100B76008001831203130718C12DC22D852E8718F5
:100B8600C52DC62D852E0719C92DCA2D852E871967
:100B9600CD2DCE2D852E7608840083130008031DE7
:100BA600D52DD62D852E760884008001800A852EC7
:100BB600071CDE2DDF2D8E2E76088400831300039E
:100BC600031DE62DE72D8E2E5330F700F70BE92D8A
:100BD60083120313071CF02DF12D8E2E0330F70020
:100BE6007708A500750884000330831300020318F4
:100BF600FD2DFE2D0D2E25082407F7007708FF3E54
:100C060084000008F80025082407F9007908840004
:100C1600780880000130A5022508031D132E142E26
:100C2600F52D0130F70075088400770880077608EF
:100C3600840080018E2E071C212E222E522E76082D
:100C4600840083130003031D292E2A2E522E5330AF
:100C5600F700F70B2C2E83120313071C332E342EAA
:100C6600522E7408840004308313000203183C2EAD
:100C76003D2E472E740884000008013EA000003077
:100C860003180130A100492EA001A1012008F70098
:100C96007408840077088000760884008001871C29
:100CA600552E562E8E2E7608840083130003031DC0
:100CB6005D2E5E2E8E2E5330F700F70B602E8312BC
:100CC6000313871C672E682E8E2E740884008313E8
:100CD600000803196F2E702E7A2E740884000008FF
:100CE600FF3EA200FF3003180030A3007E2E033023
:100CF600A2000030A3002208F700740884007708D9
:100D060080001A2E080C0139003A0319DB2D013A2E
:100D160003191E2E8E2E080083120313C2004208EA
:100D2600840083130008F4007408C0002030840097
:100D3600AC30F4000408F5000C30F60074088400AA
:100D460083130008F700F40A75088400770880000A
:100D5600F50AF60BA12E2C308400A030F40004080E
:100D6600F5000C30F6007408840083130008F700C1
:100D7600F40A7508840077088000F50AF60BB62E8B
:100D86005F08BB005E08BA005D08B9005C08B800E1
:100D96005B08BF005A08BE005908BD005808BC00D1
:100DA600C101C601D82FC301C401871DDB2EDC2E6D
:100DB600DD2EE02F65304102031CE22EE32E0D2FBF
:100DC6000130F4007408C6070C304602031CEC2EF2
:100DD600ED2EEE2EC601C1010330F4007408C500E5
:100DE6004508FF3E3C3E840083130008F400450896
:100DF6003C3E8400740880000130C5024508031D8E
:100E0600052F062FF32E46082C3E84000008F4001A
:100E16007408BC00C70147083C3E840083130008E1
:100E2600860047080A128A115B240A128A110630C4
:100E3600F5003030F400F40B1E2FF50B1E2F0000CA
:100E46000130F400740883120313C7070430470205
:100E5600031C2E2F2F2F0E2F0130F4007408C1070C
:100E66000130C3070318C40A0030C4070430440223
:100E7600B03003194302031C412F422FD82EE02F16
:100E8600C601C70147080A128A115B240A128A1191
:100E9600831203134708383E840083130008860034
:100EA6000130C3070318C40A0030C4070430F50034
:100EB6003D30F400F40B5D2FF50B5D2F622F0130F2
:100EC600F400740883120313C70704304702031C97
:100ED6006D2F6E2F452F01304402F5300319430262
:100EE600031C762F772F8F2F7F3086000A128A11E8
:100EF600B3230A128A110D30F600AF30F500B63072
:100F0600F400F40B842FF50B842FF60B842F0000CE
:100F160083120313C301C4010130F4007408C60729
:100F260002304602031C982F992F442FE02FC70149
:100F36004208840083130008203E840000088600CF
:100F46000130F4007408C2077308F4000310740C2F
:100F560071020318AF2FB02FB72F72084706031D73
:100F6600B52FB62FB72FBD2F47080A128A115B245B
:100F76000A128A110430F5003D30F400F40BC12F3B
:100F8600F50BC12FC62F0A128A11B3230A128A1132
:100F96000130F400740883120313C70704304702B4
:100FA600031CD62FD72F9B2FE02F4008F73A0319A3
:100FB600432F083A0319D62E9A2F08008313B83008
:100FC600FD000430FE002530FF00A03084000A1228
:100FD6008A11CE230A128A116830FD000330FE0002
:100FE600BA30FF00583084000A128A11CE230A1242
:0A0FF6008A1183010A128A11C82C27
:04400E00F13FFF3F40
:00000001FF
